{
  "_format": "hh-sol-artifact-1",
  "contractName": "VotingSystem",
  "sourceName": "contracts/VotingSystem.sol",
  "abi": [
    {
      "inputs": [
        {
          "internalType": "string[]",
          "name": "_candidates",
          "type": "string[]"
        }
      ],
      "stateMutability": "nonpayable",
      "type": "constructor"
    },
    {
      "anonymous": false,
      "inputs": [
        {
          "indexed": true,
          "internalType": "address",
          "name": "voter",
          "type": "address"
        },
        {
          "indexed": false,
          "internalType": "string",
          "name": "candidate",
          "type": "string"
        }
      ],
      "name": "VoteCast",
      "type": "event"
    },
    {
      "inputs": [
        {
          "internalType": "uint256",
          "name": "",
          "type": "uint256"
        }
      ],
      "name": "candidates",
      "outputs": [
        {
          "internalType": "string",
          "name": "",
          "type": "string"
        }
      ],
      "stateMutability": "view",
      "type": "function"
    },
    {
      "inputs": [
        {
          "internalType": "address",
          "name": "",
          "type": "address"
        }
      ],
      "name": "hasVoted",
      "outputs": [
        {
          "internalType": "bool",
          "name": "",
          "type": "bool"
        }
      ],
      "stateMutability": "view",
      "type": "function"
    },
    {
      "inputs": [
        {
          "internalType": "string",
          "name": "candidate",
          "type": "string"
        }
      ],
      "name": "totalVotesFor",
      "outputs": [
        {
          "internalType": "uint256",
          "name": "",
          "type": "uint256"
        }
      ],
      "stateMutability": "view",
      "type": "function"
    },
    {
      "inputs": [
        {
          "internalType": "string",
          "name": "candidate",
          "type": "string"
        }
      ],
      "name": "vote",
      "outputs": [],
      "stateMutability": "nonpayable",
      "type": "function"
    },
    {
      "inputs": [
        {
          "internalType": "string",
          "name": "",
          "type": "string"
        }
      ],
      "name": "votesReceived",
      "outputs": [
        {
          "internalType": "uint256",
          "name": "",
          "type": "uint256"
        }
      ],
      "stateMutability": "view",
      "type": "function"
    }
  ],
  "bytecode": "0x60806040523480156200001157600080fd5b5060405162001086380380620010868339818101604052810190620000379190620003d3565b80600290805190602001906200004f92919062000057565b505062000756565b828054828255906000526020600020908101928215620000a4579160200282015b82811115620000a35782518290816200009291906200066f565b509160200191906001019062000078565b5b509050620000b39190620000b7565b5090565b5b80821115620000db5760008181620000d19190620000df565b50600101620000b8565b5090565b508054620000ed906200045e565b6000825580601f1062000101575062000122565b601f01602090049060005260206000209081019062000121919062000125565b5b50565b5b808211156200014057600081600090555060010162000126565b5090565b6000604051905090565b600080fd5b600080fd5b600080fd5b6000601f19601f8301169050919050565b7f4e487b7100000000000000000000000000000000000000000000000000000000600052604160045260246000fd5b620001a8826200015d565b810181811067ffffffffffffffff82111715620001ca57620001c96200016e565b5b80604052505050565b6000620001df62000144565b9050620001ed82826200019d565b919050565b600067ffffffffffffffff82111562000210576200020f6200016e565b5b602082029050602081019050919050565b600080fd5b600080fd5b600067ffffffffffffffff8211156200024957620002486200016e565b5b62000254826200015d565b9050602081019050919050565b60005b838110156200028157808201518184015260208101905062000264565b60008484015250505050565b6000620002a46200029e846200022b565b620001d3565b905082815260208101848484011115620002c357620002c262000226565b5b620002d084828562000261565b509392505050565b600082601f830112620002f057620002ef62000158565b5b8151620003028482602086016200028d565b91505092915050565b6000620003226200031c84620001f2565b620001d3565b9050808382526020820190506020840283018581111562000348576200034762000221565b5b835b818110156200039657805167ffffffffffffffff81111562000371576200037062000158565b5b808601620003808982620002d8565b855260208501945050506020810190506200034a565b5050509392505050565b600082601f830112620003b857620003b762000158565b5b8151620003ca8482602086016200030b565b91505092915050565b600060208284031215620003ec57620003eb6200014e565b5b600082015167ffffffffffffffff8111156200040d576200040c62000153565b5b6200041b84828501620003a0565b91505092915050565b600081519050919050565b7f4e487b7100000000000000000000000000000000000000000000000000000000600052602260045260246000fd5b600060028204905060018216806200047757607f821691505b6020821081036200048d576200048c6200042f565b5b50919050565b60008190508160005260206000209050919050565b60006020601f8301049050919050565b600082821b905092915050565b600060088302620004f77fffffffffffffffffffffffffffffffffffffffffffffffffffffffffffffffff82620004b8565b620005038683620004b8565b95508019841693508086168417925050509392505050565b6000819050919050565b6000819050919050565b6000620005506200054a62000544846200051b565b62000525565b6200051b565b9050919050565b6000819050919050565b6200056c836200052f565b620005846200057b8262000557565b848454620004c5565b825550505050565b600090565b6200059b6200058c565b620005a881848462000561565b505050565b5b81811015620005d057620005c460008262000591565b600181019050620005ae565b5050565b601f8211156200061f57620005e98162000493565b620005f484620004a8565b8101602085101562000604578190505b6200061c6200061385620004a8565b830182620005ad565b50505b505050565b600082821c905092915050565b6000620006446000198460080262000624565b1980831691505092915050565b60006200065f838362000631565b9150826002028217905092915050565b6200067a8262000424565b67ffffffffffffffff8111156200069657620006956200016e565b5b620006a282546200045e565b620006af828285620005d4565b600060209050601f831160018114620006e75760008415620006d2578287015190505b620006de858262000651565b8655506200074e565b601f198416620006f78662000493565b60005b828110156200072157848901518255600182019150602085019450602081019050620006fa565b868310156200074157848901516200073d601f89168262000631565b8355505b6001600288020188555050505b505050505050565b61092080620007666000396000f3fe608060405234801561001057600080fd5b50600436106100575760003560e01c806309eef43e1461005c5780633477ee2e1461008c5780634a3bf377146100bc5780638d4b44d9146100ec578063fc36e15b1461011c575b600080fd5b61007660048036038101906100719190610434565b610138565b604051610083919061047c565b60405180910390f35b6100a660048036038101906100a191906104cd565b610158565b6040516100b3919061058a565b60405180910390f35b6100d660048036038101906100d191906106e1565b610204565b6040516100e39190610739565b60405180910390f35b610106600480360381019061010191906106e1565b61022c565b6040516101139190610739565b60405180910390f35b610136600480360381019061013191906106e1565b61025a565b005b60006020528060005260406000206000915054906101000a900460ff1681565b6002818154811061016857600080fd5b90600052602060002001600091509050805461018390610783565b80601f01602080910402602001604051908101604052809291908181526020018280546101af90610783565b80156101fc5780601f106101d1576101008083540402835291602001916101fc565b820191906000526020600020905b8154815290600101906020018083116101df57829003601f168201915b505050505081565b600060018260405161021691906107f0565b9081526020016040518091039020549050919050565b6001818051602081018201805184825260208301602085012081835280955050505050506000915090505481565b6000803373ffffffffffffffffffffffffffffffffffffffff1673ffffffffffffffffffffffffffffffffffffffff16815260200190815260200160002060009054906101000a900460ff16156102e6576040517f08c379a00000000000000000000000000000000000000000000000000000000081526004016102dd90610853565b60405180910390fd5b6001816040516102f691906107f0565b90815260200160405180910390206000815480929190610315906108a2565b919050555060016000803373ffffffffffffffffffffffffffffffffffffffff1673ffffffffffffffffffffffffffffffffffffffff16815260200190815260200160002060006101000a81548160ff0219169083151502179055503373ffffffffffffffffffffffffffffffffffffffff167f866dc605853954ffa419910eb05d67f430efec2e7db7ce135bf55565667a4ab4826040516103b7919061058a565b60405180910390a250565b6000604051905090565b600080fd5b600080fd5b600073ffffffffffffffffffffffffffffffffffffffff82169050919050565b6000610401826103d6565b9050919050565b610411816103f6565b811461041c57600080fd5b50565b60008135905061042e81610408565b92915050565b60006020828403121561044a576104496103cc565b5b60006104588482850161041f565b91505092915050565b60008115159050919050565b61047681610461565b82525050565b6000602082019050610491600083018461046d565b92915050565b6000819050919050565b6104aa81610497565b81146104b557600080fd5b50565b6000813590506104c7816104a1565b92915050565b6000602082840312156104e3576104e26103cc565b5b60006104f1848285016104b8565b91505092915050565b600081519050919050565b600082825260208201905092915050565b60005b83811015610534578082015181840152602081019050610519565b60008484015250505050565b6000601f19601f8301169050919050565b600061055c826104fa565b6105668185610505565b9350610576818560208601610516565b61057f81610540565b840191505092915050565b600060208201905081810360008301526105a48184610551565b905092915050565b600080fd5b600080fd5b7f4e487b7100000000000000000000000000000000000000000000000000000000600052604160045260246000fd5b6105ee82610540565b810181811067ffffffffffffffff8211171561060d5761060c6105b6565b5b80604052505050565b60006106206103c2565b905061062c82826105e5565b919050565b600067ffffffffffffffff82111561064c5761064b6105b6565b5b61065582610540565b9050602081019050919050565b82818337600083830152505050565b600061068461067f84610631565b610616565b9050828152602081018484840111156106a05761069f6105b1565b5b6106ab848285610662565b509392505050565b600082601f8301126106c8576106c76105ac565b5b81356106d8848260208601610671565b91505092915050565b6000602082840312156106f7576106f66103cc565b5b600082013567ffffffffffffffff811115610715576107146103d1565b5b610721848285016106b3565b91505092915050565b61073381610497565b82525050565b600060208201905061074e600083018461072a565b92915050565b7f4e487b7100000000000000000000000000000000000000000000000000000000600052602260045260246000fd5b6000600282049050600182168061079b57607f821691505b6020821081036107ae576107ad610754565b5b50919050565b600081905092915050565b60006107ca826104fa565b6107d481856107b4565b93506107e4818560208601610516565b80840191505092915050565b60006107fc82846107bf565b915081905092915050565b7f596f75206861766520616c726561647920766f7465642e000000000000000000600082015250565b600061083d601783610505565b915061084882610807565b602082019050919050565b6000602082019050818103600083015261086c81610830565b9050919050565b7f4e487b7100000000000000000000000000000000000000000000000000000000600052601160045260246000fd5b60006108ad82610497565b91507fffffffffffffffffffffffffffffffffffffffffffffffffffffffffffffffff82036108df576108de610873565b5b60018201905091905056fea26469706673582212200d32d7fd756e26fabd2117abb92679393150ff57abc86c63d1f27c44a667d97764736f6c63430008180033",
  "linkReferences": {},
  "deployedLinkReferences": {}
}